:100000000C944A000C94AB000C94AB000C94AB0025
:100010000C94AB000C94AB000C94AB000C94AB00B4
:100020000C94AB000C94AB000C94AB000C94AB00A4
:100030000C94AB000C94AB000C94AB000C94AB0094
:100040000C94AB000C94AB000C94AB000C94AB0084
:100050000C94AB000C94AB000C94AB000C94AB0074
:100060000C94AB000C94AB000C94AB000C94AB0064
:100070000C94AB000C94AB000C94AB000C94AB0054
:100080000C94AB000C94AB000C94AB000C94AB0044
:100090000C94AB0011241FBECFEFD0E1DEBFCDBF6B
:0C00A0000E949B000C949000F894FFCF8D
:1000AC0081E08093D800E8EDF0E0808180FDFDCF09
:1000BC0082E08093D800E9EDF0E0808182FFFDCFF3
:1000CC0082E08093E20098E29093E30095E39093B2
:1000DC00E4001092ED001092EF001092EE001092DE
:1000EC00F7001092F6001092F5001092F400809335
:0E00FC00D800E9EDF0E0808182FFFDCF08958D
:10010A009093C5008093C40088E18093C1008EE07B
:06011A008093C20008956D
:10012000EC010E94B0000E94AF00CE010E94B1001D
:06013000CE010E94AD00AB
:1001360083E390E00E9485000E94A4000E9456007E
:02014600FFCFE9
:0E01480083E084BD81E080936E00789408957A
:040156000C94000005
:04015A000E945400AB
:02015E00089502
:02016000089500
:020162000895FE
:00000001FF
