:100000000C9450000C947E080C947E080C947E088E
:100010000C947E080C947E080C947E080C947E0848
:100020000C947E080C947E080C947E080C947E0838
:100030000C947E080C947E080C947E080C947E0828
:100040000C947E080C947E080C947E080C947E0818
:100050000C947E080C947E080C947E080C947E0808
:100060000C947E080C947E080C947E080C947E08F8
:100070000C947E080C947E080C947E080C947E08E8
:100080000C947E080C947E080C947E080C947E08D8
:100090000C947E0801000102800102014500110A52
:1000A00011241FBECFEFD0E1DEBFCDBFE4E9F0E009
:1000B00040E019C0B791A79137912791079107FDAB
:1000C0000EC097918791EF01F92FE82F0BBF079092
:1000D0000D92A217B307D9F7FE011BBE04C01D92F3
:1000E000A217B307E1F7E03AF40721F70E94A7044B
:0800F0000C945308F894FFCFB3
:1000F800AEE0B0E0E2E8F0E00C94C9074C016B0117
:100108001A8219828FEF9FEF9C838B831E821D8238
:1001180058874F833A872987A12CB12CD6016D9037
:100128007C90F301EA0DFB1D808181110FC0D6017F
:10013800ED93FC938081853209F0D3C13F01BFEF75
:100148006B1A7B0AF6017182608219C0853279F3D5
:10015800B401082E000C990B0E9464054FEFA41AF5
:10016800B40ADCCF8C32ACF08D32F9F489819A81F3
:1001780081609A8389833196D601ED93FC93D601E9
:10018800ED91FC9180818B3269F789819A81846035
:10019800F0CF803221F489819A818860EACF833256
:1001A80051F489819A818061E4CF803321F4898177
:1001B8009A818260DECFB701C6010E940F079E8335
:1001C8008D8397FF0BC029813A81B1E02B273A83B1
:1001D80029839195819591099E838D8389819A813F
:1001E80080FF03C08D7F9A838983D601ED91FC91AE
:1001F800119780818E3249F43196ED93FC93B701C3
:10020800C6010E940F079C838B83C6010E94890741
:10021800582ED601ED91FC918081082E000C990B87
:100228000E946F08893609F443C084F4833609F4C0
:1002380002C134F4853209F427C18136E1F030C1B6
:100248008436B1F188360CF4D9C02AC1803709F454
:100258009AC03CF48E3609F4BCC08F3609F461C0EC
:100268001FC1853709F440C0883709F476C0833741
:1002780009F016C1F3C0652D70E0A701CE010B96F9
:100288000E940000892B09F426C1D601ED91FC914A
:100298001197CF0101968D939C932081AE01455F04
:1002A8005F4FBE016F5F7F4FC4010E94000010C105
:1002B800652D70E0970141E050E0CE010B960E9459
:1002C800DA03892B09F407C1F6018081918101962F
:1002D80091838083AE01455F5F4FBE016F5F7F4FA3
:1002E800C4010E946803F4C0652D70E0970140E0E6
:1002F80050E0CE010B960E94DA03892B09F4EBC07B
:10030800D6018D919C91119701968D939C93AE0186
:10031800455F5F4FBE016F5F7F4FC4010E94B0050C
:10032800D7C0652D70E0970140E050E0CE010B96F4
:100338000E94DA03892B09F4CEC0F60180819181ED
:10034800019691838083AE01455F5F4FBE016F5F69
:100358007F4FC4010E940B05BBC0652D70E097015B
:1003680040E050E0CE010B960E94DA03892B09F495
:10037800B2C0D601ED91FC911197CF0101968D93F2
:100388009C9320811CC0970140E050E060EF70E032
:10039800CE010B960E94DA03892B09F49CC0F60162
:1003A800808191810196918380838B859C85892B9F
:1003B80029F420E030E04FE351E084C028E7AE01A3
:1003C800455F5F4FBE016F5F7F4FC4010E947A0295
:1003D8007FC0A501400F511F652D70E09701CE0128
:1003E8000B960E940000892B09F475C0D6018D91E7
:1003F8009C91119701968D939C9373C0652D70E025
:10040800A701CE010B960E940000892B09F463C056
:10041800D601ED91FC911197CF0101968D939C9394
:100428002081AE01455F5F4FBE016F5F7F4FC40102
:100438000E9400004DC0B0E85B124DC0F6018081FB
:100448009181019691838083D701ED91FC91119759
:10045800CF0102968D939C93808120C0B0E85B12F7
:100468003AC0F60180819181019691838083D701FA
:10047800ED91FC911197CF0102968D939C93408149
:10048800518120E030E01EC0B0E85B1224C0F601C4
:10049800208131812F5F3F4F318320838B870DC0AF
:1004A80085E28B87D6016D927C921A8219821E8210
:1004B8001D828FEF9FEF9C838B8321E030E0AE019C
:1004C800455F5F4FBE016F5F7F4FC4010E943D07CC
:1004D8008A0D9B1D07C0F601808191810196918349
:0C04E8008083C5012E96EFE00C94E50720
:1004F400AFE0B0E0E0E8F2E00C94C6071C016B0149
:100504005A8349832B83FB01828193818480958064
:1005140000811181A680B78097FD02C00D7F02C0C3
:1005240081E090E0E981FA814080518062807380AB
:100534009801207133273D832C83740104FF08C084
:10054400411451046104710419F032E0E31AF10812
:10055400F801E870FF27FF83EE8303FF03C0F1E097
:10056400EF1AF108F6010084F185E02D3197FF8739
:10057400EE87EA0DFB1D10829C012E193F09398775
:100584002887C801827099279B878A87EB818E2FE1
:10059400EE0F990B9C01215431093D872C872E8540
:1005A4003F852230310530F48C819D81892B09F0FF
:1005B40042C05CC0411451046104710461F18E8530
:1005C4009F8501979F878E87C2018F7099278A30F4
:1005D400910514F4C09602C0895A9F4FEC85FD859D
:1005E4007A9748F49C012062215631092A31310559
:1005F40010F40E945E08EE85FF85EA0DFB1D8083E2
:10060400F1E0EF1AF10884E07694679457944794E4
:100614008A95D1F7C4CF888599858E0D9F1D1816AC
:1006240019066CF21E141F040CF0BECFEA85FB857C
:10063400EF2B29F6B9CFE981FA8180819181A281DA
:10064400B381892B8A2B8B2B89F0EE85FF85EA0DEC
:10065400FB1D31972B8120838E859F8502979F8771
:100664008E87FC01EA0DFB1D80E38083EE81FF8110
:10067400EF2B59F02E853F85215031093F872E8776
:10068400F901EA0DFB1D80E28083F6014085518566
:10069400415051092E853F85421B530BB9016A0D08
:1006A4007B1D9401C1010E9470069C01F1018081AF
:1006B400918190FF06C0F60182819381821793078E
:0C06C4000CF4C9012F96E2E10C94E2074F
:1006D000A2E0B0E0EEE6F3E00C94C6073C016B014B
:1006E000FB0122813381A480B580808191819A832E
:1006F000898386809780FA012080318042805380F0
:10070000B201A10157FE07C044275527BA0142197B
:1007100053096409750937FD03C08D7F9A83898366
:10072000950157FC05C0898182FD02C083FF02C08C
:1007300021503109CE0101967C010AE010E0C6018A
:100740000E94420457FC03C0298122FF0AC001977E
:10075000F401E80FF91F57FC02C02BE209C02DE29B
:1007600007C023FF06C00197F401E80FF91F20E23C
:10077000208309811A81F601408551854150510934
:10078000481B590BB401680F791F9501C3010E94E2
:1007900070069C01F3018081918190FF06C0F601F3
:1007A00082819381821793070CF4C9012296E2E1BA
:0407B0000C94E207BC
:1007B400CF93DF93DC01F90168387105F1F05CF443
:1007C4006138710561F164387105A1F16038710512
:1007D40009F051C02FC0603C710509F441C0603F6D
:1007E4007105F1F1603A710509F045C0C081D1810C
:1007F400CE0102969183808325C0C081D181CE0130
:10080400029691838083452B39F04881042E000C95
:10081400550B660B770B1CC0488150E029C0C08182
:10082400D181CE01049691838083488159816A8164
:100834007B810EC0C081D181CE01029691838083D9
:10084400452BA1F048815981052E000C660B770BCE
:100854004D935D936D937C93139781E090E00DC06D
:10086400C081D181CE0102969183808348815981D0
:1008740060E070E0EDCF80E090E0DF91CF910895EB
:10088400A0E0B0E0E8E4F4E00C94C807DC0128013F
:100894001696AD90BC901797F701808191811296BE
:1008A400ED91FC9113971896CD91DC9119972197AE
:1008B400F7FF02C0E1E0F0E0CA0DDB1D1882690118
:1008C400A1E0B0E08F01021B130B4C01F2E08F2278
:1008D4009924052C000C66087708CE018A199B0917
:1008E400CA15DB0519F1411551056105710589F03A
:1008F400CB01BA01A30192010E946707CA01A62F86
:10090400B72F605D6A9341E0C41AD108A901BC0104
:10091400E4CF98012C0D3D1D121613064CF31C1444
:100924001D0434F48114910419F702C080E090E0AE
:10093400AB2B31F4F701208131812F7E3183208369
:0A094400CDB7DEB7E0E10C94E40744
:10094E00CF93DF93CDB7DEB7CC54D1090FB6F89461
:10095E00DEBF0FBECDBF83E390E00E9448080E9429
:10096E00DD0682E091E00E9415080F2EFFE08F2E2B
:10097E00F1E09F2EF02D8E01035F1F4F0F2EF9E138
:10098E00AF2EF1E0BF2EF02DBE016F5F7F4FCE0177
:10099E0009960E94F705E82E8823B1F38C858F9374
:1009AE008B858F938A858F9389858F939F928F9254
:1009BE001F930F930E942808C8010E941508CE01AC
:1009CE0001966C010FB6F894DEBF0FBECDBFF12CB1
:1009DE00F60181916F011F928F93BF92AF921F9379
:1009EE000F930E942808C8010E941508F3940F90D7
:1009FE000F900F900F900F900F90FE1448F38FE111
:080A0E0091E00E941508C0CF21
:100A1600A2E0B0E0E1E1F5E00C94CA074C016B01FD
:100A2600FB012281338164807580808191819A8364
:100A36008983A680B78037FD03C08D7F9A8389831B
:100A4600FA014081518162817381CE0101967C0158
:100A560008E010E09301C6010E944204298124FFA8
:100A660006C00197F501E80FF91F20E320832981CD
:100A760023FF06C00197F501E80FF91F20E2208346
:100A860009811A81F6014085518541505109481B5B
:100A9600590BB501680F791F9301C4010E947006B6
:100AA6009C01F4018081918190FF06C0F60182814C
:100AB6009381821793070CF4C9012296EEE00C94F9
:020AC600E60741
:100AC8000F931F93CF93DF93DB01109719F48FEFE8
:100AD8009FEF3DC02D913C91119730FF25C0169690
:100AE8004D915C91179714962D913C91159742174B
:100AF800530778F41296ED91FC9113978083129620
:100B08002D913C9113972F5F3F4F13963C932E9353
:100B1800129716962D913C9117972F5F3F4F179676
:100B28003C932E93169713C01C96ED91FC911D973C
:100B3800309769F2EB01092F182F0995892B39F69F
:100B48008E819F8101969F838E83812F902FDF91C5
:080B5800CF911F910F91089548
:100B6000A2E0B0E0E6EBF5E00C94CA075C016B0193
:100B7000FB012281338184809580808191819A83D9
:100B800089836680778037FD03C08D7F9A83898350
:100B9000FA014081518162817381CE0101967C010D
:100BA0000AE010E09401C6010E94420409811A8102
:100BB000F6014085518541505109481B590BB3013D
:100BC000680F791F9401C5010E9470069C01F50110
:100BD0008081918190FF06C0F60182819381821706
:0E0BE00093070CF4C9012296EEE00C94E60790
:100BEE00FC01DB011092ED009091EE00892F8072D6
:100BFE0095FF34C04091F3008091F20050E060E028
:100C0E0070E0440F551F661F771F440F551F661F58
:100C1E00771F440F551F661F771F82958695877025
:100C2E00482B40835183628373838091EF008F70D2
:100C3E0081F0FD012FEF280F30E02F5F3F4FBD01F8
:100C4E00620F731FAAEFB0E09C919193E617F7071E
:0E0C5E00D9F71092EE0090E89093EF00089501
:100C6C00A0E1B0E0ECE3F6E00C94D207FB01BA0192
:100C7C00AE014F5F5F4F7A0140E1D7011D924A955B
:100C8C00E9F742E051E05A8349839C838B83F7FF59
:100C9C0009C08FE490E090930101809300018FEFE5
:100CAC009FEF14C0A9018C013197FE83ED83C7011E
:100CBC000E94FD074F8158852D813E8142175307B5
:100CCC0008F49A01F801E20FF31F10826096E6E037
:040CDC000C94EE077F
:100CE000A0E0B0E0E6E7F6E00C94CC076C015B0115
:100CF0007A01E901480181E08822992400FD03C0BE
:100D00004217530750F0A701B501C6010E94A90779
:100D1000EC16FD0610F0C70117C08E010E191F0951
:100D20000115110541F0B60180E290E00E946405D2
:100D300001501109F5CF8114910429F4A701B501DF
:100D4000C6010E94A907CE01CDB7DEB7ECE00C9436
:020D5000E807B2
:100D5200A2E8B0E0EFEAF6E00C94CC075C014A01AD
:100D62007A836983C12CD12CE981FA81808188231D
:100D7200E9F07401860120E830E0AE014D5F5F4F7B
:100D8200BE016F5F7F4FC5010E947C008C0D9D1DCF
:100D92008C159D054CF48FE490E0909301018093B3
:100DA20000018FEF9FEF03C06C01DECFC601CE576B
:080DB200DF4FECE00C94E807B0
:100DBA0081E08093D800E8EDF0E0808180FDFDCFEE
:100DCA0082E08093D800E9EDF0E0808182FFFDCFD8
:100DDA0082E08093E20098E29093E30095E3909397
:100DEA00E4001092ED00EFEEF0E010821092EE00B7
:100DFA001092F7001092F6001092F5001092F4008B
:100E0A0090E890838093D800E9EDF0E0808182FF3A
:040E1A00FDCF08956B
:100E1E00DC01ED91FC91119780818A3221F080E006
:100E2E0090E03AE00EC03196ED93FC93DB01ED912C
:100E3E00FC911197CF0102968D939C9380819181A5
:100E4E000895ED91FC911197208120532A3068F47A
:100E5E00389FA001399F500D1124CA01820F911D98
:0C0E6E0031961196FC93EE93ECCF0895A2
:100E7A00A0E0B0E0E3E4F7E00C94CE077C01FB01CC
:100E8A00EA01C901A280B380C480D58000811181A2
:100E9A00209711F4C8E3D1E0009719F4CE010E941B
:100EAA003A08B7FC04C0A816B90608F4C5019601A9
:100EBA00AC01BE01C7010E947006CDB7DEB7EAE0F9
:040ECA000C94EA0793
:100ECE00A1E21A2EAA1BBB1BFD010DC0AA1FBB1F40
:100EDE00EE1FFF1FA217B307E407F50720F0A21BB2
:100EEE00B30BE40BF50B661F771F881F991F1A941F
:100EFE0069F760957095809590959B01AC01BD0149
:040F0E00CF01089572
:100F1200CF93DF93EC0190E0E92FF0E0EE0FFF1F9B
:100F2200EE5DFE4F8081811102C081810EC0A881D9
:100F3200B9812C91821305C091811196B983A8833E
:100F420001C09F5F9B3040F3892FDF91CF910895BD
:100F5200A0E0B0E0EFEAF7E00C94D0076C01EB01FF
:100F62008A017B01E40EF51ECE15DF0541F0899161
:100F7200B601082E000C990B0E946405F5CFC8013A
:0A0F8200CDB7DEB7E8E00C94EC07F1
:100F8C002F923F924F925F926F927F928F929F928D
:100F9C00AF92BF92CF92DF92EF92FF920F931F937B
:100FAC00CF93DF93CDB7DEB7CA1BDB0B0FB6F8942C
:080FBC00DEBF0FBECDBF09949A
:100FC4002A88398848885F846E847D848C849B84D5
:100FD400AA84B984C884DF80EE80FD800C811B81E3
:100FE400AA81B981CE0FD11D0FB6F894DEBF0FBE12
:060FF400CDBFED010895E0
:100FFA00A2E0B0E0E3E0F8E00C94D4078C015A8355
:10100A004983AE014F5F5F4F0E94A906F801208114
:10101A0024FF02C08FEF9FEF2296E4E00C94F007C2
:10102A00CF93DF93FC0106C00E946708FE018991F5
:10103A008111FACF8081882319F0EF012196F4CF2C
:06104A00DF91CF91089533
:10105000A0E0B0E0EEE2F8E00C94D607AE01475F06
:101060005F4F6F8178858D819E810E947708E2E0D5
:041070000C94F207E3
:10107400FC01AF014F5F5F4F2081222311F0FA0181
:0C108400F8CF9F01281B390BC90108950B
:101090009093C5008093C40088E18093C1008EE0E6
:0610A0008093C2000895D8
:1010A600EC010E9483080E948208CE010E948408F7
:0610B600CE010E9480083B
:1010BC009C01215631092A31310510F48F7599277D
:0210CC00089585
:1010CE00E0ECF0E0908195FFFDCF8093C60008958F
:1010DE009C01215431092A31310508F480620895AA
:0E10EE009A01AB016FEF7FE70E94360608956E
:0410FC000C94000050
:041100000E947A00CF
:0211040008954C
:0211060008954A
:02110800089548
:10110A0043414E207265616479200D0A0049443AD0
:10111A002530336C5820002530325820000D0A0043
:10112A0068076C094C836A9074A07AC0008068884A
:06113A0000846C820081BC
:07114000286E756C6C29009C
:06114700286E696C29000E
:00000001FF
